{
  "_format": "hh-sol-artifact-1",
  "contractName": "Voting",
  "sourceName": "contracts/Voting.sol",
  "abi": [
    {
      "inputs": [
        {
          "internalType": "uint256",
          "name": "blocktime",
          "type": "uint256"
        },
        {
          "internalType": "uint256",
          "name": "cutime",
          "type": "uint256"
        }
      ],
      "name": "WEEKPASSED",
      "type": "error"
    },
    {
      "inputs": [
        {
          "internalType": "string",
          "name": "_title",
          "type": "string"
        },
        {
          "internalType": "string",
          "name": "_description",
          "type": "string"
        }
      ],
      "name": "addProposal",
      "outputs": [],
      "stateMutability": "nonpayable",
      "type": "function"
    },
    {
      "inputs": [
        {
          "internalType": "uint256",
          "name": "_proposalId",
          "type": "uint256"
        }
      ],
      "name": "getProposalVotes",
      "outputs": [
        {
          "internalType": "uint256",
          "name": "yesVotes",
          "type": "uint256"
        },
        {
          "internalType": "uint256",
          "name": "noVotes",
          "type": "uint256"
        }
      ],
      "stateMutability": "view",
      "type": "function"
    },
    {
      "inputs": [],
      "name": "getProposals",
      "outputs": [
        {
          "components": [
            {
              "internalType": "uint256",
              "name": "id",
              "type": "uint256"
            },
            {
              "internalType": "string",
              "name": "title",
              "type": "string"
            },
            {
              "internalType": "string",
              "name": "description",
              "type": "string"
            },
            {
              "internalType": "uint256",
              "name": "voteCount",
              "type": "uint256"
            },
            {
              "internalType": "uint256",
              "name": "yesVotes",
              "type": "uint256"
            },
            {
              "internalType": "uint256",
              "name": "noVotes",
              "type": "uint256"
            },
            {
              "internalType": "uint256",
              "name": "cutTime",
              "type": "uint256"
            },
            {
              "internalType": "bool",
              "name": "isOpen",
              "type": "bool"
            }
          ],
          "internalType": "struct Voting.Proposal[]",
          "name": "",
          "type": "tuple[]"
        }
      ],
      "stateMutability": "view",
      "type": "function"
    },
    {
      "inputs": [
        {
          "internalType": "uint256",
          "name": "_proposalId",
          "type": "uint256"
        },
        {
          "internalType": "address",
          "name": "_voter",
          "type": "address"
        }
      ],
      "name": "hasVoted",
      "outputs": [
        {
          "internalType": "bool",
          "name": "",
          "type": "bool"
        }
      ],
      "stateMutability": "view",
      "type": "function"
    },
    {
      "inputs": [],
      "name": "howMuchTimeLeft",
      "outputs": [
        {
          "internalType": "uint256[]",
          "name": "",
          "type": "uint256[]"
        }
      ],
      "stateMutability": "view",
      "type": "function"
    },
    {
      "inputs": [
        {
          "internalType": "uint256",
          "name": "",
          "type": "uint256"
        }
      ],
      "name": "proposals",
      "outputs": [
        {
          "internalType": "uint256",
          "name": "id",
          "type": "uint256"
        },
        {
          "internalType": "string",
          "name": "title",
          "type": "string"
        },
        {
          "internalType": "string",
          "name": "description",
          "type": "string"
        },
        {
          "internalType": "uint256",
          "name": "voteCount",
          "type": "uint256"
        },
        {
          "internalType": "uint256",
          "name": "yesVotes",
          "type": "uint256"
        },
        {
          "internalType": "uint256",
          "name": "noVotes",
          "type": "uint256"
        },
        {
          "internalType": "uint256",
          "name": "cutTime",
          "type": "uint256"
        },
        {
          "internalType": "bool",
          "name": "isOpen",
          "type": "bool"
        }
      ],
      "stateMutability": "view",
      "type": "function"
    },
    {
      "inputs": [
        {
          "internalType": "uint256",
          "name": "idProposal",
          "type": "uint256"
        }
      ],
      "name": "timePassed",
      "outputs": [
        {
          "internalType": "bool",
          "name": "Open",
          "type": "bool"
        }
      ],
      "stateMutability": "view",
      "type": "function"
    },
    {
      "inputs": [
        {
          "internalType": "uint256",
          "name": "_proposalId",
          "type": "uint256"
        }
      ],
      "name": "upDateProposal",
      "outputs": [
        {
          "internalType": "bool",
          "name": "isOpen",
          "type": "bool"
        }
      ],
      "stateMutability": "nonpayable",
      "type": "function"
    },
    {
      "inputs": [],
      "name": "upDateProsals",
      "outputs": [],
      "stateMutability": "nonpayable",
      "type": "function"
    },
    {
      "inputs": [
        {
          "internalType": "uint256",
          "name": "_proposalId",
          "type": "uint256"
        },
        {
          "internalType": "bool",
          "name": "_yesVote",
          "type": "bool"
        }
      ],
      "name": "vote",
      "outputs": [],
      "stateMutability": "nonpayable",
      "type": "function"
    }
  ],
  "bytecode": "0x608060405234801561001057600080fd5b506119a2806100206000396000f3fe608060405234801561001057600080fd5b506004361061009e5760003560e01c80639ff3212a116100665780639ff3212a14610175578063ac2da4a914610193578063c9d27afe1461019d578063cfed9199146101b9578063ff89e7f2146101e95761009e565b8063013cf08b146100a357806323d1c95e146100da57806343859632146100f657806347c661401461012657806362564c4814610157575b600080fd5b6100bd60048036038101906100b89190610cd4565b610219565b6040516100d1989796959493929190610dbb565b60405180910390f35b6100f460048036038101906100ef9190610f7c565b61038e565b005b610110600480360381019061010b9190611052565b610522565b60405161011d9190611092565b60405180910390f35b610140600480360381019061013b9190610cd4565b610589565b60405161014e9291906110ad565b60405180910390f35b61015f610628565b60405161016c91906112b7565b60405180910390f35b61017d6107f9565b60405161018a9190611388565b60405180910390f35b61019b61093a565b005b6101b760048036038101906101b291906113d6565b610970565b005b6101d360048036038101906101ce9190610cd4565b610bf5565b6040516101e09190611092565b60405180910390f35b61020360048036038101906101fe9190610cd4565b610c36565b6040516102109190611092565b60405180910390f35b6002818154811061022957600080fd5b906000526020600020906008020160009150905080600001549080600101805461025290611445565b80601f016020809104026020016040519081016040528092919081815260200182805461027e90611445565b80156102cb5780601f106102a0576101008083540402835291602001916102cb565b820191906000526020600020905b8154815290600101906020018083116102ae57829003601f168201915b5050505050908060020180546102e090611445565b80601f016020809104026020016040519081016040528092919081815260200182805461030c90611445565b80156103595780601f1061032e57610100808354040283529160200191610359565b820191906000526020600020905b81548152906001019060200180831161033c57829003601f168201915b5050505050908060030154908060040154908060050154908060060154908060070160009054906101000a900460ff16905088565b8160008151116103d3576040517f08c379a00000000000000000000000000000000000000000000000000000000081526004016103ca906114c2565b60405180910390fd5b816000815111610418576040517f08c379a000000000000000000000000000000000000000000000000000000000815260040161040f906114c2565b60405180910390fd5b6000604051806101000160405280600280549050815260200186815260200185815260200160008152602001600081526020016000815260200162093a80426104619190611511565b815260200160011515815250905060028190806001815401808255809150506001900390600052602060002090600802016000909190919091506000820151816000015560208201518160010190816104ba91906116f1565b5060408201518160020190816104d091906116f1565b50606082015181600301556080820151816004015560a0820151816005015560c0820151816006015560e08201518160070160006101000a81548160ff02191690831515021790555050505050505050565b600080600084815260200190815260200160002060008373ffffffffffffffffffffffffffffffffffffffff1673ffffffffffffffffffffffffffffffffffffffff16815260200190815260200160002060009054906101000a900460ff16905092915050565b60008060028054905083106105d3576040517f08c379a00000000000000000000000000000000000000000000000000000000081526004016105ca9061180f565b60405180910390fd5b600283815481106105e7576105e661182f565b5b9060005260206000209060080201600401546002848154811061060d5761060c61182f565b5b90600052602060002090600802016005015491509150915091565b60606002805480602002602001604051908101604052809291908181526020016000905b828210156107f05783829060005260206000209060080201604051806101000160405290816000820154815260200160018201805461068a90611445565b80601f01602080910402602001604051908101604052809291908181526020018280546106b690611445565b80156107035780601f106106d857610100808354040283529160200191610703565b820191906000526020600020905b8154815290600101906020018083116106e657829003601f168201915b5050505050815260200160028201805461071c90611445565b80601f016020809104026020016040519081016040528092919081815260200182805461074890611445565b80156107955780601f1061076a57610100808354040283529160200191610795565b820191906000526020600020905b81548152906001019060200180831161077857829003601f168201915b50505050508152602001600382015481526020016004820154815260200160058201548152602001600682015481526020016007820160009054906101000a900460ff1615151515815250508152602001906001019061064c565b50505050905090565b60606000600280549050905060008167ffffffffffffffff81111561082157610820610e51565b5b60405190808252806020026020018201604052801561084f5781602001602082028036833780820191505090505b50905060005b828110156109315760008160018561086d919061185e565b610877919061185e565b9050426002828154811061088e5761088d61182f565b5b90600052602060002090600802016006015411156108fb5742600282815481106108bb576108ba61182f565b5b9060005260206000209060080201600601546108d7919061185e565b8383815181106108ea576108e961182f565b5b60200260200101818152505061091d565b60008383815181106109105761090f61182f565b5b6020026020010181815250505b50808061092990611892565b915050610855565b50809250505090565b6000600280549050905060005b8082111561096c5761095881610c36565b50808061096490611892565b915050610947565b5050565b60028054905082106109b7576040517f08c379a00000000000000000000000000000000000000000000000000000000081526004016109ae9061180f565b60405180910390fd5b60008083815260200190815260200160002060003373ffffffffffffffffffffffffffffffffffffffff1673ffffffffffffffffffffffffffffffffffffffff16815260200190815260200160002060009054906101000a900460ff1615610a54576040517f08c379a0000000000000000000000000000000000000000000000000000000008152600401610a4b9061194c565b60405180910390fd5b60001515610a6183610c36565b151503610acc574260028381548110610a7d57610a7c61182f565b5b9060005260206000209060080201600601546040517f19870a98000000000000000000000000000000000000000000000000000000008152600401610ac39291906110ad565b60405180910390fd5b8015610b125760028281548110610ae657610ae561182f565b5b90600052602060002090600802016004016000815480929190610b0890611892565b9190505550610b4e565b60028281548110610b2657610b2561182f565b5b90600052602060002090600802016005016000815480929190610b4890611892565b91905055505b60028281548110610b6257610b6161182f565b5b90600052602060002090600802016003016000815480929190610b8490611892565b9190505550600160008084815260200190815260200160002060003373ffffffffffffffffffffffffffffffffffffffff1673ffffffffffffffffffffffffffffffffffffffff16815260200190815260200160002060006101000a81548160ff0219169083151502179055505050565b60004260028381548110610c0c57610c0b61182f565b5b90600052602060002090600802016006015411610c2c5760009050610c31565b600190505b919050565b600080610c4283610bf5565b90508060028481548110610c5957610c5861182f565b5b906000526020600020906008020160070160006101000a81548160ff02191690831515021790555080915050919050565b6000604051905090565b600080fd5b600080fd5b6000819050919050565b610cb181610c9e565b8114610cbc57600080fd5b50565b600081359050610cce81610ca8565b92915050565b600060208284031215610cea57610ce9610c94565b5b6000610cf884828501610cbf565b91505092915050565b610d0a81610c9e565b82525050565b600081519050919050565b600082825260208201905092915050565b60005b83811015610d4a578082015181840152602081019050610d2f565b60008484015250505050565b6000601f19601f8301169050919050565b6000610d7282610d10565b610d7c8185610d1b565b9350610d8c818560208601610d2c565b610d9581610d56565b840191505092915050565b60008115159050919050565b610db581610da0565b82525050565b600061010082019050610dd1600083018b610d01565b8181036020830152610de3818a610d67565b90508181036040830152610df78189610d67565b9050610e066060830188610d01565b610e136080830187610d01565b610e2060a0830186610d01565b610e2d60c0830185610d01565b610e3a60e0830184610dac565b9998505050505050505050565b600080fd5b600080fd5b7f4e487b7100000000000000000000000000000000000000000000000000000000600052604160045260246000fd5b610e8982610d56565b810181811067ffffffffffffffff82111715610ea857610ea7610e51565b5b80604052505050565b6000610ebb610c8a565b9050610ec78282610e80565b919050565b600067ffffffffffffffff821115610ee757610ee6610e51565b5b610ef082610d56565b9050602081019050919050565b82818337600083830152505050565b6000610f1f610f1a84610ecc565b610eb1565b905082815260208101848484011115610f3b57610f3a610e4c565b5b610f46848285610efd565b509392505050565b600082601f830112610f6357610f62610e47565b5b8135610f73848260208601610f0c565b91505092915050565b60008060408385031215610f9357610f92610c94565b5b600083013567ffffffffffffffff811115610fb157610fb0610c99565b5b610fbd85828601610f4e565b925050602083013567ffffffffffffffff811115610fde57610fdd610c99565b5b610fea85828601610f4e565b9150509250929050565b600073ffffffffffffffffffffffffffffffffffffffff82169050919050565b600061101f82610ff4565b9050919050565b61102f81611014565b811461103a57600080fd5b50565b60008135905061104c81611026565b92915050565b6000806040838503121561106957611068610c94565b5b600061107785828601610cbf565b92505060206110888582860161103d565b9150509250929050565b60006020820190506110a76000830184610dac565b92915050565b60006040820190506110c26000830185610d01565b6110cf6020830184610d01565b9392505050565b600081519050919050565b600082825260208201905092915050565b6000819050602082019050919050565b61110b81610c9e565b82525050565b600082825260208201905092915050565b600061112d82610d10565b6111378185611111565b9350611147818560208601610d2c565b61115081610d56565b840191505092915050565b61116481610da0565b82525050565b6000610100830160008301516111836000860182611102565b506020830151848203602086015261119b8282611122565b915050604083015184820360408601526111b58282611122565b91505060608301516111ca6060860182611102565b5060808301516111dd6080860182611102565b5060a08301516111f060a0860182611102565b5060c083015161120360c0860182611102565b5060e083015161121660e086018261115b565b508091505092915050565b600061122d838361116a565b905092915050565b6000602082019050919050565b600061124d826110d6565b61125781856110e1565b935083602082028501611269856110f2565b8060005b858110156112a557848403895281516112868582611221565b945061129183611235565b925060208a0199505060018101905061126d565b50829750879550505050505092915050565b600060208201905081810360008301526112d18184611242565b905092915050565b600081519050919050565b600082825260208201905092915050565b6000819050602082019050919050565b60006113118383611102565b60208301905092915050565b6000602082019050919050565b6000611335826112d9565b61133f81856112e4565b935061134a836112f5565b8060005b8381101561137b5781516113628882611305565b975061136d8361131d565b92505060018101905061134e565b5085935050505092915050565b600060208201905081810360008301526113a2818461132a565b905092915050565b6113b381610da0565b81146113be57600080fd5b50565b6000813590506113d0816113aa565b92915050565b600080604083850312156113ed576113ec610c94565b5b60006113fb85828601610cbf565b925050602061140c858286016113c1565b9150509250929050565b7f4e487b7100000000000000000000000000000000000000000000000000000000600052602260045260246000fd5b6000600282049050600182168061145d57607f821691505b6020821081036114705761146f611416565b5b50919050565b7f537472696e672063616e6e6f7420626520656d70747900000000000000000000600082015250565b60006114ac601683610d1b565b91506114b782611476565b602082019050919050565b600060208201905081810360008301526114db8161149f565b9050919050565b7f4e487b7100000000000000000000000000000000000000000000000000000000600052601160045260246000fd5b600061151c82610c9e565b915061152783610c9e565b925082820190508082111561153f5761153e6114e2565b5b92915050565b60008190508160005260206000209050919050565b60006020601f8301049050919050565b600082821b905092915050565b6000600883026115a77fffffffffffffffffffffffffffffffffffffffffffffffffffffffffffffffff8261156a565b6115b1868361156a565b95508019841693508086168417925050509392505050565b6000819050919050565b60006115ee6115e96115e484610c9e565b6115c9565b610c9e565b9050919050565b6000819050919050565b611608836115d3565b61161c611614826115f5565b848454611577565b825550505050565b600090565b611631611624565b61163c8184846115ff565b505050565b5b8181101561166057611655600082611629565b600181019050611642565b5050565b601f8211156116a55761167681611545565b61167f8461155a565b8101602085101561168e578190505b6116a261169a8561155a565b830182611641565b50505b505050565b600082821c905092915050565b60006116c8600019846008026116aa565b1980831691505092915050565b60006116e183836116b7565b9150826002028217905092915050565b6116fa82610d10565b67ffffffffffffffff81111561171357611712610e51565b5b61171d8254611445565b611728828285611664565b600060209050601f83116001811461175b5760008415611749578287015190505b61175385826116d5565b8655506117bb565b601f19841661176986611545565b60005b828110156117915784890151825560018201915060208501945060208101905061176c565b868310156117ae57848901516117aa601f8916826116b7565b8355505b6001600288020188555050505b505050505050565b7f496e76616c69642070726f706f73616c20494400000000000000000000000000600082015250565b60006117f9601383610d1b565b9150611804826117c3565b602082019050919050565b60006020820190508181036000830152611828816117ec565b9050919050565b7f4e487b7100000000000000000000000000000000000000000000000000000000600052603260045260246000fd5b600061186982610c9e565b915061187483610c9e565b925082820390508181111561188c5761188b6114e2565b5b92915050565b600061189d82610c9e565b91507fffffffffffffffffffffffffffffffffffffffffffffffffffffffffffffffff82036118cf576118ce6114e2565b5b600182019050919050565b7f596f75206861766520616c726561647920766f74656420666f7220746869732060008201527f70726f706f73616c000000000000000000000000000000000000000000000000602082015250565b6000611936602883610d1b565b9150611941826118da565b604082019050919050565b6000602082019050818103600083015261196581611929565b905091905056fea2646970667358221220b047553a620c1e4293a996890c3d1446bdec290d5896b1b87322f8872cd4a1d864736f6c63430008120033",
  "linkReferences": {},
  "deployedLinkReferences": {}
}